{
    "contractName": "IDO",
    "abi": [
        {
            "inputs": [
                {
                    "internalType": "address",
                    "name": "_token",
                    "type": "address"
                },
                {
                    "internalType": "address",
                    "name": "_admin",
                    "type": "address"
                }
            ],
            "stateMutability": "nonpayable",
            "type": "constructor"
        },
        {
            "inputs": [],
            "name": "admin",
            "outputs": [
                {
                    "internalType": "address",
                    "name": "",
                    "type": "address"
                }
            ],
            "stateMutability": "view",
            "type": "function"
        },
        {
            "inputs": [
                {
                    "internalType": "address",
                    "name": "",
                    "type": "address"
                }
            ],
            "name": "balances",
            "outputs": [
                {
                    "internalType": "uint256",
                    "name": "amount",
                    "type": "uint256"
                },
                {
                    "internalType": "bool",
                    "name": "isClaim",
                    "type": "bool"
                }
            ],
            "stateMutability": "view",
            "type": "function"
        },
        {
            "inputs": [
                {
                    "internalType": "address",
                    "name": "account",
                    "type": "address"
                }
            ],
            "name": "checkBalances",
            "outputs": [
                {
                    "internalType": "uint256",
                    "name": "amount",
                    "type": "uint256"
                }
            ],
            "stateMutability": "view",
            "type": "function"
        },
        {
            "inputs": [],
            "name": "claim",
            "outputs": [],
            "stateMutability": "nonpayable",
            "type": "function"
        },
        {
            "inputs": [],
            "name": "endTime",
            "outputs": [
                {
                    "internalType": "uint256",
                    "name": "",
                    "type": "uint256"
                }
            ],
            "stateMutability": "view",
            "type": "function"
        },
        {
            "inputs": [],
            "name": "isSuccess",
            "outputs": [
                {
                    "internalType": "bool",
                    "name": "",
                    "type": "bool"
                }
            ],
            "stateMutability": "nonpayable",
            "type": "function"
        },
        {
            "inputs": [],
            "name": "maxBuyAmount",
            "outputs": [
                {
                    "internalType": "uint256",
                    "name": "",
                    "type": "uint256"
                }
            ],
            "stateMutability": "view",
            "type": "function"
        },
        {
            "inputs": [],
            "name": "maxTargetFuns",
            "outputs": [
                {
                    "internalType": "uint256",
                    "name": "",
                    "type": "uint256"
                }
            ],
            "stateMutability": "view",
            "type": "function"
        },
        {
            "inputs": [],
            "name": "minBuyAmount",
            "outputs": [
                {
                    "internalType": "uint256",
                    "name": "",
                    "type": "uint256"
                }
            ],
            "stateMutability": "view",
            "type": "function"
        },
        {
            "inputs": [],
            "name": "minTargetFuns",
            "outputs": [
                {
                    "internalType": "uint256",
                    "name": "",
                    "type": "uint256"
                }
            ],
            "stateMutability": "view",
            "type": "function"
        },
        {
            "inputs": [],
            "name": "presale",
            "outputs": [],
            "stateMutability": "payable",
            "type": "function"
        },
        {
            "inputs": [],
            "name": "presaleAmount",
            "outputs": [
                {
                    "internalType": "uint256",
                    "name": "",
                    "type": "uint256"
                }
            ],
            "stateMutability": "view",
            "type": "function"
        },
        {
            "inputs": [],
            "name": "presalePrice",
            "outputs": [
                {
                    "internalType": "uint256",
                    "name": "",
                    "type": "uint256"
                }
            ],
            "stateMutability": "view",
            "type": "function"
        },
        {
            "inputs": [],
            "name": "refund",
            "outputs": [],
            "stateMutability": "nonpayable",
            "type": "function"
        },
        {
            "inputs": [],
            "name": "token",
            "outputs": [
                {
                    "internalType": "contract RNT",
                    "name": "",
                    "type": "address"
                }
            ],
            "stateMutability": "view",
            "type": "function"
        },
        {
            "inputs": [],
            "name": "withdra",
            "outputs": [],
            "stateMutability": "nonpayable",
            "type": "function"
        }
    ],
    "bytecode": "6080604052655af3107a40005f5569d3c21bcecceda1000000600155662386f26fc1000060025567016345785d8a000060035568056bc75e2d63100000600455680ad78ebc5ac620000060055561005942620151806100b7565b600655348015610067575f80fd5b50604051610908380380610908833981016040819052610086916100f7565b600780546001600160a01b039384166001600160a01b03199182161790915560088054929093169116179055610128565b808201808211156100d657634e487b7160e01b5f52601160045260245ffd5b92915050565b80516001600160a01b03811681146100f2575f80fd5b919050565b5f8060408385031215610108575f80fd5b610111836100dc565b915061011f602084016100dc565b90509250929050565b6107d3806101355f395ff3fe6080604052600436106100ee575f3560e01c806388e765ff11610087578063f66bf22911610057578063f66bf22914610258578063f851a4401461026d578063fc0c546a146102a4578063fdea8e0b146102c3575f80fd5b806388e765ff14610204578063b138d50014610219578063d1e609c41461022e578063d3a124d614610243575f80fd5b806327e235e3116100c257806327e235e31461017d5780633197cbb6146101c75780634e71d92d146101dc578063590e1ae3146101f0575f80fd5b80620e7fa8146100f25780630b6c754b1461011957806311cd682d1461013357806313341f5114610167575b5f80fd5b3480156100fd575f80fd5b506101065f5481565b6040519081526020015b60405180910390f35b348015610124575f80fd5b506040515f8152602001610110565b34801561013e575f80fd5b5061010661014d3660046106aa565b6001600160a01b03165f9081526009602052604090205490565b348015610172575f80fd5b5061017b6102cb565b005b348015610188575f80fd5b506101b26101973660046106aa565b60096020525f90815260409020805460019091015460ff1682565b60408051928352901515602083015201610110565b3480156101d2575f80fd5b5061010660065481565b3480156101e7575f80fd5b5061017b610384565b3480156101fb575f80fd5b5061017b6104b7565b34801561020f575f80fd5b5061010660035481565b348015610224575f80fd5b5061010660015481565b348015610239575f80fd5b5061010660055481565b34801561024e575f80fd5b5061010660045481565b348015610263575f80fd5b5061010660025481565b348015610278575f80fd5b5060085461028c906001600160a01b031681565b6040516001600160a01b039091168152602001610110565b3480156102af575f80fd5b5060075461028c906001600160a01b031681565b61017b61054b565b60065442116103215760405162461bcd60e51b815260206004820152601b60248201527f68617665206e6f74207265616368656420746f207468652064646c000000000060448201526064015b60405180910390fd5b60045447116103425760405162461bcd60e51b8152600401610318906106d7565b6008546001600160a01b03166108fc61035c600a4761072f565b6040518115909202915f818181858888f19350505050158015610381573d5f803e3d5ffd5b50565b60065442116103d55760405162461bcd60e51b815260206004820152601b60248201527f68617665206e6f74207265616368656420746f207468652064646c00000000006044820152606401610318565b60045447116103f65760405162461bcd60e51b8152600401610318906106d7565b335f9081526009602052604081205461041090479061072f565b60015461041d919061074e565b335f81815260096020526040908190206001908101805460ff19169091179055600754905163a9059cbb60e01b81526004810192909252602482018390529192506001600160a01b039091169063a9059cbb906044016020604051808303815f875af115801561048f573d5f803e3d5ffd5b505050506040513d601f19601f820116820180604052508101906104b3919061076b565b5050565b600654421180156104c9575060045447105b6105055760405162461bcd60e51b815260206004820152600d60248201526c125113c81a5cc819985a5b1959609a1b6044820152606401610318565b335f8181526009602052604080822054905181156108fc0292818181858888f19350505050158015610539573d5f803e3d5ffd5b50335f90815260096020526040812055565b600654421080156105675750600554610564344761078a565b11155b6105a75760405162461bcd60e51b815260206004820152601160248201527049444f2069732070726f63657373696e6760781b6044820152606401610318565b335f908152600960205260408120546105c190349061078a565b90506002548110156106245760405162461bcd60e51b815260206004820152602660248201527f74686520616d6f756e742073686f756c64206d6f7265207468616e20302e30316044820152651032ba3432b960d11b6064820152608401610318565b6003548111156106845760405162461bcd60e51b815260206004820152602560248201527f74686520616d6f756e742073686f756c64206c657373207468616e20302e312060448201526432ba3432b960d91b6064820152608401610318565b335f90815260096020526040812080543492906106a290849061078a565b909155505050565b5f602082840312156106ba575f80fd5b81356001600160a01b03811681146106d0575f80fd5b9392505050565b60208082526024908201527f49444f2062616c616e6365206973206e6f74206d6f7265207468616e20313030604082015263040cae8d60e31b606082015260800190565b634e487b7160e01b5f52601160045260245ffd5b5f8261074957634e487b7160e01b5f52601260045260245ffd5b500490565b80820281158282048414176107655761076561071b565b92915050565b5f6020828403121561077b575f80fd5b815180151581146106d0575f80fd5b808201808211156107655761076561071b56fea264697066735822122092d8bd2df34cbf38e9f9f3357b9799410c692cd8c38ec35aff090f9b060187b564736f6c634300081a0033",
    "sourcePath": "/Users/rock/git/foundry-project/nft-market-1/src/IDO.sol",
    "compiler": {
        "name": "solc",
        "version": "0.8.26+commit.8a97fa7a"
    },
    "functionHashes": {
        "admin()": "f851a440",
        "balances(address)": "27e235e3",
        "checkBalances(address)": "11cd682d",
        "claim()": "4e71d92d",
        "endTime()": "3197cbb6",
        "isSuccess()": "0b6c754b",
        "maxBuyAmount()": "88e765ff",
        "maxTargetFuns()": "d1e609c4",
        "minBuyAmount()": "f66bf229",
        "minTargetFuns()": "d3a124d6",
        "presale()": "fdea8e0b",
        "presaleAmount()": "b138d500",
        "presalePrice()": "000e7fa8",
        "refund()": "590e1ae3",
        "token()": "fc0c546a",
        "withdra()": "13341f51"
    },
    "gasEstimates": {
        "creation": {
            "codeDepositCost": "400600",
            "executionCost": "infinite",
            "totalCost": "infinite"
        },
        "external": {
            "admin()": "2380",
            "balances(address)": "4649",
            "checkBalances(address)": "2556",
            "claim()": "infinite",
            "endTime()": "2328",
            "isSuccess()": "221",
            "maxBuyAmount()": "2306",
            "maxTargetFuns()": "2350",
            "minBuyAmount()": "2305",
            "minTargetFuns()": "2372",
            "presale()": "infinite",
            "presaleAmount()": "2328",
            "presalePrice()": "2306",
            "refund()": "infinite",
            "token()": "2402",
            "withdra()": "infinite"
        }
    }
}