{
    "contractName": "IDO",
    "abi": [
        {
            "inputs": [
                {
                    "internalType": "address",
                    "name": "_token",
                    "type": "address"
                },
                {
                    "internalType": "address",
                    "name": "_admin",
                    "type": "address"
                }
            ],
            "stateMutability": "nonpayable",
            "type": "constructor"
        },
        {
            "inputs": [],
            "name": "admin",
            "outputs": [
                {
                    "internalType": "address",
                    "name": "",
                    "type": "address"
                }
            ],
            "stateMutability": "view",
            "type": "function"
        },
        {
            "inputs": [
                {
                    "internalType": "address",
                    "name": "",
                    "type": "address"
                }
            ],
            "name": "balances",
            "outputs": [
                {
                    "internalType": "uint256",
                    "name": "amount",
                    "type": "uint256"
                },
                {
                    "internalType": "bool",
                    "name": "isClaim",
                    "type": "bool"
                }
            ],
            "stateMutability": "view",
            "type": "function"
        },
        {
            "inputs": [],
            "name": "claim",
            "outputs": [],
            "stateMutability": "nonpayable",
            "type": "function"
        },
        {
            "inputs": [],
            "name": "endTime",
            "outputs": [
                {
                    "internalType": "uint256",
                    "name": "",
                    "type": "uint256"
                }
            ],
            "stateMutability": "view",
            "type": "function"
        },
        {
            "inputs": [],
            "name": "isSuccess",
            "outputs": [
                {
                    "internalType": "bool",
                    "name": "",
                    "type": "bool"
                }
            ],
            "stateMutability": "view",
            "type": "function"
        },
        {
            "inputs": [],
            "name": "maxBuyAmount",
            "outputs": [
                {
                    "internalType": "uint256",
                    "name": "",
                    "type": "uint256"
                }
            ],
            "stateMutability": "view",
            "type": "function"
        },
        {
            "inputs": [],
            "name": "maxTargetFuns",
            "outputs": [
                {
                    "internalType": "uint256",
                    "name": "",
                    "type": "uint256"
                }
            ],
            "stateMutability": "view",
            "type": "function"
        },
        {
            "inputs": [],
            "name": "minBuyAmount",
            "outputs": [
                {
                    "internalType": "uint256",
                    "name": "",
                    "type": "uint256"
                }
            ],
            "stateMutability": "view",
            "type": "function"
        },
        {
            "inputs": [],
            "name": "minTargetFuns",
            "outputs": [
                {
                    "internalType": "uint256",
                    "name": "",
                    "type": "uint256"
                }
            ],
            "stateMutability": "view",
            "type": "function"
        },
        {
            "inputs": [],
            "name": "presale",
            "outputs": [],
            "stateMutability": "payable",
            "type": "function"
        },
        {
            "inputs": [],
            "name": "presalePrice",
            "outputs": [
                {
                    "internalType": "uint256",
                    "name": "",
                    "type": "uint256"
                }
            ],
            "stateMutability": "view",
            "type": "function"
        },
        {
            "inputs": [],
            "name": "presaleTokenAmount",
            "outputs": [
                {
                    "internalType": "uint256",
                    "name": "",
                    "type": "uint256"
                }
            ],
            "stateMutability": "view",
            "type": "function"
        },
        {
            "inputs": [],
            "name": "refund",
            "outputs": [],
            "stateMutability": "nonpayable",
            "type": "function"
        },
        {
            "inputs": [
                {
                    "internalType": "uint256",
                    "name": "amount",
                    "type": "uint256"
                }
            ],
            "name": "setTotlePresaleETH",
            "outputs": [],
            "stateMutability": "nonpayable",
            "type": "function"
        },
        {
            "inputs": [],
            "name": "token",
            "outputs": [
                {
                    "internalType": "contract RNT",
                    "name": "",
                    "type": "address"
                }
            ],
            "stateMutability": "view",
            "type": "function"
        },
        {
            "inputs": [],
            "name": "totlePresaleETH",
            "outputs": [
                {
                    "internalType": "uint256",
                    "name": "",
                    "type": "uint256"
                }
            ],
            "stateMutability": "view",
            "type": "function"
        },
        {
            "inputs": [],
            "name": "withdraw",
            "outputs": [],
            "stateMutability": "nonpayable",
            "type": "function"
        }
    ],
    "bytecode": "6080604052655af3107a40005f5569d3c21bcecceda1000000600155662386f26fc1000060025567016345785d8a000060035568056bc75e2d63100000600455680ad78ebc5ac620000060055561005942620151806100b7565b600655348015610067575f80fd5b506040516109da3803806109da833981016040819052610086916100f7565b600880546001600160a01b039384166001600160a01b03199182161790915560098054929093169116179055610128565b808201808211156100d657634e487b7160e01b5f52601160045260245ffd5b92915050565b80516001600160a01b03811681146100f2575f80fd5b919050565b5f8060408385031215610108575f80fd5b610111836100dc565b915061011f602084016100dc565b90509250929050565b6108a5806101355f395ff3fe6080604052600436106100f9575f3560e01c806388e765ff11610092578063f66bf22911610062578063f66bf2291461024e578063f851a44014610263578063fb0565b31461029a578063fc0c546a146102b9578063fdea8e0b146102d8575f80fd5b806388e765ff146101fa5780638b250eff1461020f578063d1e609c414610224578063d3a124d614610239575f80fd5b80633197cbb6116100cd5780633197cbb6146101a75780633ccfd60b146101bc5780634e71d92d146101d2578063590e1ae3146101e6575f80fd5b80620e7fa8146100fd5780630b6c754b146101245780631050b8b61461014857806327e235e31461015d575b5f80fd5b348015610108575f80fd5b506101115f5481565b6040519081526020015b60405180910390f35b34801561012f575f80fd5b506101386102e0565b604051901515815260200161011b565b348015610153575f80fd5b5061011160075481565b348015610168575f80fd5b50610192610177366004610765565b600a6020525f90815260409020805460019091015460ff1682565b6040805192835290151560208301520161011b565b3480156101b2575f80fd5b5061011160065481565b3480156101c7575f80fd5b506101d0610306565b005b3480156101dd575f80fd5b506101d06103b9565b3480156101f1575f80fd5b506101d06104f4565b348015610205575f80fd5b5061011160035481565b34801561021a575f80fd5b5061011160015481565b34801561022f575f80fd5b5061011160055481565b348015610244575f80fd5b5061011160045481565b348015610259575f80fd5b5061011160025481565b34801561026e575f80fd5b50600954610282906001600160a01b031681565b6040516001600160a01b03909116815260200161011b565b3480156102a5575f80fd5b506101d06102b4366004610792565b600755565b3480156102c4575f80fd5b50600854610282906001600160a01b031681565b6101d061058a565b5f600654421180156102f6575060045460075410155b156103015750600190565b505f90565b600654421161035c5760405162461bcd60e51b815260206004820152601b60248201527f68617665206e6f74207265616368656420746f207468652064646c000000000060448201526064015b60405180910390fd5b60045460075410156103805760405162461bcd60e51b8152600401610353906107a9565b6009546040516001600160a01b03909116904780156108fc02915f818181858888f193505050501580156103b6573d5f803e3d5ffd5b50565b600654421161040a5760405162461bcd60e51b815260206004820152601b60248201527f68617665206e6f74207265616368656420746f207468652064646c00000000006044820152606401610353565b600454600754101561042e5760405162461bcd60e51b8152600401610353906107a9565b600754335f908152600a60205260408120546001549192916104509190610801565b61045a919061081e565b335f818152600a6020526040908190206001908101805460ff19169091179055600854905163a9059cbb60e01b81526004810192909252602482018390529192506001600160a01b039091169063a9059cbb906044016020604051808303815f875af11580156104cc573d5f803e3d5ffd5b505050506040513d601f19601f820116820180604052508101906104f0919061083d565b5050565b600654421180156105085750600454600754105b6105445760405162461bcd60e51b815260206004820152600d60248201526c125113c81a5cc819985a5b1959609a1b6044820152606401610353565b335f818152600a602052604080822054905181156108fc0292818181858888f19350505050158015610578573d5f803e3d5ffd5b50335f908152600a6020526040812055565b60065442106105d35760405162461bcd60e51b815260206004820152601560248201527413db9b1e5058dd1a5d994e9b9bddc81a5cc819191b605a1b6044820152606401610353565b600554346007546105e4919061085c565b111561064c5760405162461bcd60e51b815260206004820152603160248201527f4f6e6c794163746976653a49444f2062616c616e636520686176652072656163604482015270686564206d617854617267657446756e7360781b6064820152608401610353565b335f908152600a602052604081205461066690349061085c565b90503460075f828254610679919061085c565b90915550506002548110156106df5760405162461bcd60e51b815260206004820152602660248201527f74686520616d6f756e742073686f756c64206d6f7265207468616e20302e30316044820152651032ba3432b960d11b6064820152608401610353565b60035481111561073f5760405162461bcd60e51b815260206004820152602560248201527f74686520616d6f756e742073686f756c64206c657373207468616e20302e312060448201526432ba3432b960d91b6064820152608401610353565b335f908152600a60205260408120805434929061075d90849061085c565b909155505050565b5f60208284031215610775575f80fd5b81356001600160a01b038116811461078b575f80fd5b9392505050565b5f602082840312156107a2575f80fd5b5035919050565b60208082526024908201527f49444f2062616c616e6365206973206e6f74206d6f7265207468616e20313030604082015263040cae8d60e31b606082015260800190565b634e487b7160e01b5f52601160045260245ffd5b8082028115828204841417610818576108186107ed565b92915050565b5f8261083857634e487b7160e01b5f52601260045260245ffd5b500490565b5f6020828403121561084d575f80fd5b8151801515811461078b575f80fd5b80820180821115610818576108186107ed56fea2646970667358221220c36584b19b0274ac138f46dbce77431ea179fcb40c8bd6608a9dd98322d982e764736f6c634300081a0033",
    "sourcePath": "/Users/rock/git/foundry-project/nft-market-1/src/IDO.sol",
    "compiler": {
        "name": "solc",
        "version": "0.8.26+commit.8a97fa7a"
    },
    "functionHashes": {
        "admin()": "f851a440",
        "balances(address)": "27e235e3",
        "claim()": "4e71d92d",
        "endTime()": "3197cbb6",
        "isSuccess()": "0b6c754b",
        "maxBuyAmount()": "88e765ff",
        "maxTargetFuns()": "d1e609c4",
        "minBuyAmount()": "f66bf229",
        "minTargetFuns()": "d3a124d6",
        "presale()": "fdea8e0b",
        "presalePrice()": "000e7fa8",
        "presaleTokenAmount()": "8b250eff",
        "refund()": "590e1ae3",
        "setTotlePresaleETH(uint256)": "fb0565b3",
        "token()": "fc0c546a",
        "totlePresaleETH()": "1050b8b6",
        "withdraw()": "3ccfd60b"
    },
    "gasEstimates": {
        "creation": {
            "codeDepositCost": "442600",
            "executionCost": "infinite",
            "totalCost": "infinite"
        },
        "external": {
            "admin()": "2380",
            "balances(address)": "4716",
            "claim()": "infinite",
            "endTime()": "2306",
            "isSuccess()": "6620",
            "maxBuyAmount()": "2306",
            "maxTargetFuns()": "2350",
            "minBuyAmount()": "2305",
            "minTargetFuns()": "2372",
            "presale()": "infinite",
            "presalePrice()": "2306",
            "presaleTokenAmount()": "2328",
            "refund()": "infinite",
            "setTotlePresaleETH(uint256)": "22376",
            "token()": "2424",
            "totlePresaleETH()": "2351",
            "withdraw()": "infinite"
        }
    }
}