{
    "contractName": "NFTMarket",
    "abi": [
        {
            "inputs": [
                {
                    "internalType": "address",
                    "name": "target",
                    "type": "address"
                }
            ],
            "name": "AddressEmptyCode",
            "type": "error"
        },
        {
            "inputs": [
                {
                    "internalType": "address",
                    "name": "account",
                    "type": "address"
                }
            ],
            "name": "AddressInsufficientBalance",
            "type": "error"
        },
        {
            "inputs": [],
            "name": "ECDSAInvalidSignature",
            "type": "error"
        },
        {
            "inputs": [
                {
                    "internalType": "uint256",
                    "name": "length",
                    "type": "uint256"
                }
            ],
            "name": "ECDSAInvalidSignatureLength",
            "type": "error"
        },
        {
            "inputs": [
                {
                    "internalType": "bytes32",
                    "name": "s",
                    "type": "bytes32"
                }
            ],
            "name": "ECDSAInvalidSignatureS",
            "type": "error"
        },
        {
            "inputs": [],
            "name": "FailedInnerCall",
            "type": "error"
        },
        {
            "inputs": [],
            "name": "InvalidShortString",
            "type": "error"
        },
        {
            "inputs": [
                {
                    "internalType": "address",
                    "name": "owner",
                    "type": "address"
                }
            ],
            "name": "OwnableInvalidOwner",
            "type": "error"
        },
        {
            "inputs": [
                {
                    "internalType": "address",
                    "name": "account",
                    "type": "address"
                }
            ],
            "name": "OwnableUnauthorizedAccount",
            "type": "error"
        },
        {
            "inputs": [
                {
                    "internalType": "address",
                    "name": "token",
                    "type": "address"
                }
            ],
            "name": "SafeERC20FailedOperation",
            "type": "error"
        },
        {
            "inputs": [
                {
                    "internalType": "string",
                    "name": "str",
                    "type": "string"
                }
            ],
            "name": "StringTooLong",
            "type": "error"
        },
        {
            "anonymous": false,
            "inputs": [
                {
                    "indexed": false,
                    "internalType": "bytes32",
                    "name": "orderId",
                    "type": "bytes32"
                }
            ],
            "name": "Cancel",
            "type": "event"
        },
        {
            "anonymous": false,
            "inputs": [],
            "name": "EIP712DomainChanged",
            "type": "event"
        },
        {
            "anonymous": false,
            "inputs": [
                {
                    "indexed": true,
                    "internalType": "address",
                    "name": "nft",
                    "type": "address"
                },
                {
                    "indexed": true,
                    "internalType": "uint256",
                    "name": "tokenId",
                    "type": "uint256"
                },
                {
                    "indexed": false,
                    "internalType": "bytes32",
                    "name": "orderId",
                    "type": "bytes32"
                },
                {
                    "indexed": false,
                    "internalType": "address",
                    "name": "seller",
                    "type": "address"
                },
                {
                    "indexed": false,
                    "internalType": "address",
                    "name": "payToken",
                    "type": "address"
                },
                {
                    "indexed": false,
                    "internalType": "uint256",
                    "name": "price",
                    "type": "uint256"
                },
                {
                    "indexed": false,
                    "internalType": "uint256",
                    "name": "deadline",
                    "type": "uint256"
                }
            ],
            "name": "List",
            "type": "event"
        },
        {
            "anonymous": false,
            "inputs": [
                {
                    "indexed": true,
                    "internalType": "address",
                    "name": "previousOwner",
                    "type": "address"
                },
                {
                    "indexed": true,
                    "internalType": "address",
                    "name": "newOwner",
                    "type": "address"
                }
            ],
            "name": "OwnershipTransferred",
            "type": "event"
        },
        {
            "anonymous": false,
            "inputs": [
                {
                    "indexed": false,
                    "internalType": "address",
                    "name": "to",
                    "type": "address"
                }
            ],
            "name": "SetFeeTo",
            "type": "event"
        },
        {
            "anonymous": false,
            "inputs": [
                {
                    "indexed": false,
                    "internalType": "address",
                    "name": "signer",
                    "type": "address"
                }
            ],
            "name": "SetWhiteListSigner",
            "type": "event"
        },
        {
            "anonymous": false,
            "inputs": [
                {
                    "indexed": false,
                    "internalType": "bytes32",
                    "name": "orderId",
                    "type": "bytes32"
                },
                {
                    "indexed": false,
                    "internalType": "address",
                    "name": "buyer",
                    "type": "address"
                },
                {
                    "indexed": false,
                    "internalType": "uint256",
                    "name": "fee",
                    "type": "uint256"
                }
            ],
            "name": "Sold",
            "type": "event"
        },
        {
            "inputs": [],
            "name": "ETH_FLAG",
            "outputs": [
                {
                    "internalType": "address",
                    "name": "",
                    "type": "address"
                }
            ],
            "stateMutability": "view",
            "type": "function"
        },
        {
            "inputs": [
                {
                    "internalType": "bytes32",
                    "name": "orderId",
                    "type": "bytes32"
                },
                {
                    "internalType": "bytes",
                    "name": "signatureForWL",
                    "type": "bytes"
                }
            ],
            "name": "buy",
            "outputs": [],
            "stateMutability": "payable",
            "type": "function"
        },
        {
            "inputs": [
                {
                    "internalType": "bytes32",
                    "name": "orderId",
                    "type": "bytes32"
                }
            ],
            "name": "buy",
            "outputs": [],
            "stateMutability": "payable",
            "type": "function"
        },
        {
            "inputs": [
                {
                    "internalType": "bytes32",
                    "name": "orderId",
                    "type": "bytes32"
                }
            ],
            "name": "cancel",
            "outputs": [],
            "stateMutability": "nonpayable",
            "type": "function"
        },
        {
            "inputs": [],
            "name": "eip712Domain",
            "outputs": [
                {
                    "internalType": "bytes1",
                    "name": "fields",
                    "type": "bytes1"
                },
                {
                    "internalType": "string",
                    "name": "name",
                    "type": "string"
                },
                {
                    "internalType": "string",
                    "name": "version",
                    "type": "string"
                },
                {
                    "internalType": "uint256",
                    "name": "chainId",
                    "type": "uint256"
                },
                {
                    "internalType": "address",
                    "name": "verifyingContract",
                    "type": "address"
                },
                {
                    "internalType": "bytes32",
                    "name": "salt",
                    "type": "bytes32"
                },
                {
                    "internalType": "uint256[]",
                    "name": "extensions",
                    "type": "uint256[]"
                }
            ],
            "stateMutability": "view",
            "type": "function"
        },
        {
            "inputs": [],
            "name": "feeBP",
            "outputs": [
                {
                    "internalType": "uint256",
                    "name": "",
                    "type": "uint256"
                }
            ],
            "stateMutability": "view",
            "type": "function"
        },
        {
            "inputs": [],
            "name": "feeTo",
            "outputs": [
                {
                    "internalType": "address",
                    "name": "",
                    "type": "address"
                }
            ],
            "stateMutability": "view",
            "type": "function"
        },
        {
            "inputs": [
                {
                    "internalType": "address",
                    "name": "nft",
                    "type": "address"
                },
                {
                    "internalType": "uint256",
                    "name": "tokenId",
                    "type": "uint256"
                },
                {
                    "internalType": "address",
                    "name": "payToken",
                    "type": "address"
                },
                {
                    "internalType": "uint256",
                    "name": "price",
                    "type": "uint256"
                },
                {
                    "internalType": "uint256",
                    "name": "deadline",
                    "type": "uint256"
                }
            ],
            "name": "list",
            "outputs": [],
            "stateMutability": "nonpayable",
            "type": "function"
        },
        {
            "inputs": [
                {
                    "internalType": "address",
                    "name": "nft",
                    "type": "address"
                },
                {
                    "internalType": "uint256",
                    "name": "tokenId",
                    "type": "uint256"
                }
            ],
            "name": "listing",
            "outputs": [
                {
                    "internalType": "bytes32",
                    "name": "",
                    "type": "bytes32"
                }
            ],
            "stateMutability": "view",
            "type": "function"
        },
        {
            "inputs": [
                {
                    "internalType": "bytes32",
                    "name": "",
                    "type": "bytes32"
                }
            ],
            "name": "listingOrders",
            "outputs": [
                {
                    "internalType": "address",
                    "name": "seller",
                    "type": "address"
                },
                {
                    "internalType": "address",
                    "name": "nft",
                    "type": "address"
                },
                {
                    "internalType": "uint256",
                    "name": "tokenId",
                    "type": "uint256"
                },
                {
                    "internalType": "address",
                    "name": "payToken",
                    "type": "address"
                },
                {
                    "internalType": "uint256",
                    "name": "price",
                    "type": "uint256"
                },
                {
                    "internalType": "uint256",
                    "name": "deadline",
                    "type": "uint256"
                }
            ],
            "stateMutability": "view",
            "type": "function"
        },
        {
            "inputs": [],
            "name": "owner",
            "outputs": [
                {
                    "internalType": "address",
                    "name": "",
                    "type": "address"
                }
            ],
            "stateMutability": "view",
            "type": "function"
        },
        {
            "inputs": [],
            "name": "renounceOwnership",
            "outputs": [],
            "stateMutability": "nonpayable",
            "type": "function"
        },
        {
            "inputs": [
                {
                    "internalType": "address",
                    "name": "to",
                    "type": "address"
                }
            ],
            "name": "setFeeTo",
            "outputs": [],
            "stateMutability": "nonpayable",
            "type": "function"
        },
        {
            "inputs": [
                {
                    "internalType": "address",
                    "name": "signer",
                    "type": "address"
                }
            ],
            "name": "setWhithListSigner",
            "outputs": [],
            "stateMutability": "nonpayable",
            "type": "function"
        },
        {
            "inputs": [
                {
                    "internalType": "address",
                    "name": "newOwner",
                    "type": "address"
                }
            ],
            "name": "transferOwnership",
            "outputs": [],
            "stateMutability": "nonpayable",
            "type": "function"
        },
        {
            "inputs": [],
            "name": "whiteListSigner",
            "outputs": [
                {
                    "internalType": "address",
                    "name": "",
                    "type": "address"
                }
            ],
            "stateMutability": "view",
            "type": "function"
        }
    ],
    "bytecode": "610160604052348015610010575f80fd5b50604080518082018252601281527113dc195b94dc1858d953919513585c9ad95d60721b602080830191909152825180840190935260018352603160f81b9083015290338061007957604051631e4fbdf760e01b81525f60048201526024015b60405180910390fd5b61008281610137565b5061008e826001610186565b6101205261009d816002610186565b61014052815160208084019190912060e052815190820120610100524660a05261012960e05161010051604080517f8b73c3c69bb8fe3d512ecc4cf759cc79239f7b179b0ffacaa9a75d522b39400f60208201529081019290925260608201524660808201523060a08201525f9060c00160405160208183030381529060405280519060200120905090565b60805250503060c05261039f565b5f80546001600160a01b038381166001600160a01b0319831681178455604051919092169283917f8be0079c531659141344cd1fd0a4f28419497f9722a3daafe3b4186f6b6457e09190a35050565b5f6020835110156101a15761019a836101b8565b90506101b2565b816101ac848261028d565b5060ff90505b92915050565b5f80829050601f815111156101e2578260405163305a27a960e01b81526004016100709190610347565b80516101ed8261037c565b179392505050565b634e487b7160e01b5f52604160045260245ffd5b600181811c9082168061021d57607f821691505b60208210810361023b57634e487b7160e01b5f52602260045260245ffd5b50919050565b601f82111561028857805f5260205f20601f840160051c810160208510156102665750805b601f840160051c820191505b81811015610285575f8155600101610272565b50505b505050565b81516001600160401b038111156102a6576102a66101f5565b6102ba816102b48454610209565b84610241565b6020601f8211600181146102ec575f83156102d55750848201515b5f19600385901b1c1916600184901b178455610285565b5f84815260208120601f198516915b8281101561031b57878501518255602094850194600190920191016102fb565b508482101561033857868401515f19600387901b60f8161c191681555b50505050600190811b01905550565b602081525f82518060208401528060208501604085015e5f604082850101526040601f19601f83011684010191505092915050565b8051602080830151919081101561023b575f1960209190910360031b1b16919050565b60805160a05160c05160e051610100516101205161014051611bc36103f05f395f610d4801525f610d1601525f61145301525f61142b01525f61138601525f6113b001525f6113da0152611bc35ff3fe6080604052600436106100ef575f3560e01c80639c9a106111610087578063f2fde38b11610057578063f2fde38b146102f0578063f3db41fb1461030f578063f46901ed1461032e578063f56153921461034d575f80fd5b80639c9a106114610203578063a386dc2114610216578063c4d252f514610235578063e5cb0f5214610254575f80fd5b806384b0196e116100c257806384b0196e1461018e5780638da5cb5b146101b55780638de820f6146101d15780639b6ec0db146101f0575f80fd5b8063017e7e58146100f3578063017f6fae1461012f57806345fe280d14610151578063715018a614610178575b5f80fd5b3480156100fe575f80fd5b50600454610112906001600160a01b031681565b6040516001600160a01b0390911681526020015b60405180910390f35b34801561013a575f80fd5b50610143601e81565b604051908152602001610126565b34801561015c575f80fd5b5061011273eeeeeeeeeeeeeeeeeeeeeeeeeeeeeeeeeeeeeeee81565b348015610183575f80fd5b5061018c61036c565b005b348015610199575f80fd5b506101a261037f565b60405161012697969594939291906118b2565b3480156101c0575f80fd5b505f546001600160a01b0316610112565b3480156101dc575f80fd5b506101436101eb36600461195c565b6103c1565b61018c6101fe366004611986565b61040c565b61018c6102113660046119fd565b610425565b348015610221575f80fd5b5061018c610230366004611a14565b61043f565b348015610240575f80fd5b5061018c61024f3660046119fd565b610533565b34801561025f575f80fd5b506102b261026e3660046119fd565b600560208190525f91825260409091208054600182015460028301546003840154600485015494909501546001600160a01b03938416959284169491939092169186565b604080516001600160a01b039788168152958716602087015285019390935293166060830152608082019290925260a081019190915260c001610126565b3480156102fb575f80fd5b5061018c61030a366004611a14565b610693565b34801561031a575f80fd5b5061018c610329366004611a2f565b6106cd565b348015610339575f80fd5b5061018c610348366004611a14565b610bab565b348015610358575f80fd5b50600354610112906001600160a01b031681565b610374610c94565b61037d5f610cc0565b565b5f6060805f805f6060610390610d0f565b610398610d41565b604080515f80825260208201909252600f60f81b9b939a50919850469750309650945092509050565b6001600160a01b038083165f90815260066020908152604080832085845282528083205480845260059092528220549192909116156104005780610402565b5f5b9150505b92915050565b6104168282610d6e565b610420835f610e62565b505050565b60045461043c9082906001600160a01b0316610e62565b50565b610447610c94565b6001600160a01b0381166104915760405162461bcd60e51b815260206004820152600c60248201526b7a65726f206164647265737360a01b60448201526064015b60405180910390fd5b6003546001600160a01b038083169116036104de5760405162461bcd60e51b815260206004820152600d60248201526c3932b832b0ba1039b4b3b732b960991b6044820152606401610488565b600380546001600160a01b0319166001600160a01b0383169081179091556040519081527f0605f8da057ada46f0d7c9dbcaa45f879c237bb6e190502d1ce90a31d0c365d0906020015b60405180910390a150565b5f818152600560205260409020805460018201546002909201546001600160a01b0391821692909116908261059d5760405162461bcd60e51b815260206004820152601060248201526f1bdc99195c881b9bdd081b1a5cdd195960821b6044820152606401610488565b6001600160a01b03831633146105f55760405162461bcd60e51b815260206004820152601760248201527f206f6e6c792073656c6c65722063616e2063616e63656c0000000000000000006044820152606401610488565b5f84815260056020818152604080842080546001600160a01b0319908116825560018201805482169055600282018690556003820180549091169055600481018590559092018390556001600160a01b038516835260068152818320848452815281832092909255518581527fe8d9861dbc9c663ed3accd261bbe2fe01e0d3d9e5f51fa38523b265c7757a93a91015b60405180910390a150505050565b61069b610c94565b6001600160a01b0381166106c457604051631e4fbdf760e01b81525f6004820152602401610488565b61043c81610cc0565b42811161071c5760405162461bcd60e51b815260206004820152601760248201527f646561646c696e6520697320696e2074686520706173740000000000000000006044820152606401610488565b5f821161075b5760405162461bcd60e51b815260206004820152600d60248201526c7072696365206973207a65726f60981b6044820152606401610488565b6001600160a01b03831615806107cf57505f836001600160a01b03166318160ddd6040518163ffffffff1660e01b8152600401602060405180830381865afa1580156107a9573d5f803e3d5ffd5b505050506040513d601f19601f820116820180604052508101906107cd9190611a7d565b115b61080e5760405162461bcd60e51b815260206004820152601060248201526f1c185e551bdad95b881a5b9d985b1a5960821b6044820152606401610488565b6040516331a9108f60e11b81526004810185905233906001600160a01b03871690636352211e90602401602060405180830381865afa158015610853573d5f803e3d5ffd5b505050506040513d601f19601f820116820180604052508101906108779190611a94565b6001600160a01b0316146108b95760405162461bcd60e51b81526020600482015260096024820152683737ba1037bbb732b960b91b6044820152606401610488565b60405163020604bf60e21b81526004810185905230906001600160a01b0387169063081812fc90602401602060405180830381865afa1580156108fe573d5f803e3d5ffd5b505050506040513d601f19601f820116820180604052508101906109229190611a94565b6001600160a01b0316148061099e575060405163e985e9c560e01b81523360048201523060248201526001600160a01b0386169063e985e9c590604401602060405180830381865afa15801561097a573d5f803e3d5ffd5b505050506040513d601f19601f8201168201806040525081019061099e9190611aaf565b6109d95760405162461bcd60e51b815260206004820152600c60248201526b1b9bdd08185c1c1c9bdd995960a21b6044820152606401610488565b6040805160c08082018352338083526001600160a01b0389811660208086019182528587018b81528a841660608089019182526080808a018d815260a0808c018e81528d518089019b909b52975189168a8e0152945192890192909252915186169187019190915251908501529051838501528551808403909401845260e090920185528251928201929092205f8181526005909252939020549192911615610ac45760405162461bcd60e51b815260206004820152601860248201527f746865206f7264657220616c7265616479206c697374656400000000000000006044820152606401610488565b5f818152600560208181526040808420865181546001600160a01b03199081166001600160a01b039283161783558885015160018401805483169184169190911790558884015160028401556060808a0151600385018054909316908416179091556080808a0151600485015560a0808b015194909701939093558d8216808852600686528488208e895286529684902088905583518881523395810195909552908b168484015283018990528201879052518993927f5d213268583c22f5ae46afede6b9e99b6c5af5d3c01eef22540ac3d1a6568e8a928290030190a350505050505050565b610bb3610c94565b6004546001600160a01b03808316911603610bff5760405162461bcd60e51b815260206004820152600c60248201526b72657065617420666565546f60a01b6044820152606401610488565b6004546001600160a01b0316610c465760405162461bcd60e51b815260206004820152600c60248201526b7a65726f206164647265737360a01b6044820152606401610488565b600480546001600160a01b0319166001600160a01b0383169081179091556040519081527ff6b59ffc88fbb27f33470b919e00b41139ee340eb349521f0cbbc1504ce29c3e90602001610528565b5f546001600160a01b0316331461037d5760405163118cdaa760e01b8152336004820152602401610488565b5f80546001600160a01b038381166001600160a01b0319831681178455604051919092169283917f8be0079c531659141344cd1fd0a4f28419497f9722a3daafe3b4186f6b6457e09190a35050565b6060610d3c7f00000000000000000000000000000000000000000000000000000000000000006001611179565b905090565b6060610d3c7f00000000000000000000000000000000000000000000000000000000000000006002611179565b604080517f918f4cf9354c0de4fa709dd759129cf520f41e786d670e243a019965e5325416602082015233918101919091525f90610dc49060600160405160208183030381529060405280519060200120611222565b90505f610e068285858080601f0160208091040260200160405190810160405280939291908181526020018383808284375f9201919091525061124e92505050565b6003549091506001600160a01b03808316911614610e5c5760405162461bcd60e51b81526020600482015260136024820152723737ba103bb434ba32a634b9ba29b4b3b732b960691b6044820152606401610488565b50505050565b5f82815260056020818152604092839020835160c08101855281546001600160a01b03908116808352600184015482169483019490945260028301549582019590955260038201549094166060850152600481015460808501529091015460a0830152610f095760405162461bcd60e51b81526020600482015260156024820152741352d50e881bdc99195c881b9bdd081b1a5cdd1959605a1b6044820152606401610488565b428160a0015111610f515760405162461bcd60e51b81526020600482015260126024820152711352d50e881bdc99195c88195e1c1a5c995960721b6044820152606401610488565b5f83815260056020818152604080842080546001600160a01b031990811682556001820180548216905560028201869055600382018054909116905560048082018690559301849055908401518451858301518351632142170760e11b81526001600160a01b0392831695810195909552336024860152604485015291519116926342842e0e926064808201939182900301818387803b158015610ff3575f80fd5b505af1158015611005573d5f803e3d5ffd5b505f925050506001600160a01b0383161561103d57612710601e836080015161102e9190611ae2565b6110389190611af9565b61103f565b5f5b905073eeeeeeeeeeeeeeeeeeeeeeeeeeeeeeeeeeeeeeee6001600160a01b031682606001516001600160a01b0316036110c157816080015134146110bc5760405162461bcd60e51b81526020600482015260146024820152734d4b543a2077726f6e67206574682076616c756560601b6044820152606401610488565b611106565b34156111065760405162461bcd60e51b81526020600482015260146024820152734d4b543a2077726f6e67206574682076616c756560601b6044820152606401610488565b6111278260600151835f01518385608001516111229190611b18565b611276565b801561113c5761113c82606001518483611276565b604080518581523360208201529081018290527f5745dff4fc7177594453cfe5e3b6cee01687a0a657fc8a8d35fde42437abe7e790606001610685565b606060ff83146111935761118c8361133d565b9050610406565b81805461119f90611b2b565b80601f01602080910402602001604051908101604052809291908181526020018280546111cb90611b2b565b80156112165780601f106111ed57610100808354040283529160200191611216565b820191905f5260205f20905b8154815290600101906020018083116111f957829003601f168201915b50505050509050610406565b5f61040661122e61137a565b8360405161190160f01b8152600281019290925260228201526042902090565b5f805f8061125c86866114a3565b92509250925061126c82826114ec565b5090949350505050565b73eeeeeeeeeeeeeeeeeeeeeeeeeeeeeeeeeeeeeeed196001600160a01b03841601611331575f826001600160a01b0316826040515f6040518083038185875af1925050503d805f81146112e4576040519150601f19603f3d011682016040523d82523d5f602084013e6112e9565b606091505b5050905080610e5c5760405162461bcd60e51b81526020600482015260146024820152731352d50e881d1c985b9cd9995c8819985a5b195960621b6044820152606401610488565b610420833384846115a8565b60605f61134983611602565b6040805160208082528183019092529192505f91906020820181803683375050509182525060208101929092525090565b5f306001600160a01b037f0000000000000000000000000000000000000000000000000000000000000000161480156113d257507f000000000000000000000000000000000000000000000000000000000000000046145b156113fc57507f000000000000000000000000000000000000000000000000000000000000000090565b610d3c604080517f8b73c3c69bb8fe3d512ecc4cf759cc79239f7b179b0ffacaa9a75d522b39400f60208201527f0000000000000000000000000000000000000000000000000000000000000000918101919091527f000000000000000000000000000000000000000000000000000000000000000060608201524660808201523060a08201525f9060c00160405160208183030381529060405280519060200120905090565b5f805f83516041036114da576020840151604085015160608601515f1a6114cc88828585611629565b9550955095505050506114e5565b505081515f91506002905b9250925092565b5f8260038111156114ff576114ff611b63565b03611508575050565b600182600381111561151c5761151c611b63565b0361153a5760405163f645eedf60e01b815260040160405180910390fd5b600282600381111561154e5761154e611b63565b0361156f5760405163fce698f760e01b815260048101829052602401610488565b600382600381111561158357611583611b63565b036115a4576040516335e2f38360e21b815260048101829052602401610488565b5050565b604080516001600160a01b0385811660248301528416604482015260648082018490528251808303909101815260849091019091526020810180516001600160e01b03166323b872dd60e01b179052610e5c9085906116f1565b5f60ff8216601f81111561040657604051632cd44ac360e21b815260040160405180910390fd5b5f80807f7fffffffffffffffffffffffffffffff5d576e7357a4501ddfe92f46681b20a084111561166257505f915060039050826116e7565b604080515f808252602082018084528a905260ff891692820192909252606081018790526080810186905260019060a0016020604051602081039080840390855afa1580156116b3573d5f803e3d5ffd5b5050604051601f1901519150506001600160a01b0381166116de57505f9250600191508290506116e7565b92505f91508190505b9450945094915050565b5f6117056001600160a01b03841683611752565b905080515f141580156117295750808060200190518101906117279190611aaf565b155b1561042057604051635274afe760e01b81526001600160a01b0384166004820152602401610488565b606061175f83835f611766565b9392505050565b60608147101561178b5760405163cd78605960e01b8152306004820152602401610488565b5f80856001600160a01b031684866040516117a69190611b77565b5f6040518083038185875af1925050503d805f81146117e0576040519150601f19603f3d011682016040523d82523d5f602084013e6117e5565b606091505b50915091506117f58683836117ff565b9695505050505050565b6060826118145761180f8261185b565b61175f565b815115801561182b57506001600160a01b0384163b155b1561185457604051639996b31560e01b81526001600160a01b0385166004820152602401610488565b508061175f565b80511561186b5780518082602001fd5b604051630a12f52160e11b815260040160405180910390fd5b5f81518084528060208401602086015e5f602082860101526020601f19601f83011685010191505092915050565b60ff60f81b8816815260e060208201525f6118d060e0830189611884565b82810360408401526118e28189611884565b606084018890526001600160a01b038716608085015260a0840186905283810360c0850152845180825260208087019350909101905f5b81811015611937578351835260209384019390920191600101611919565b50909b9a5050505050505050505050565b6001600160a01b038116811461043c575f80fd5b5f806040838503121561196d575f80fd5b823561197881611948565b946020939093013593505050565b5f805f60408486031215611998575f80fd5b83359250602084013567ffffffffffffffff8111156119b5575f80fd5b8401601f810186136119c5575f80fd5b803567ffffffffffffffff8111156119db575f80fd5b8660208284010111156119ec575f80fd5b939660209190910195509293505050565b5f60208284031215611a0d575f80fd5b5035919050565b5f60208284031215611a24575f80fd5b813561175f81611948565b5f805f805f60a08688031215611a43575f80fd5b8535611a4e81611948565b9450602086013593506040860135611a6581611948565b94979396509394606081013594506080013592915050565b5f60208284031215611a8d575f80fd5b5051919050565b5f60208284031215611aa4575f80fd5b815161175f81611948565b5f60208284031215611abf575f80fd5b8151801515811461175f575f80fd5b634e487b7160e01b5f52601160045260245ffd5b808202811582820484141761040657610406611ace565b5f82611b1357634e487b7160e01b5f52601260045260245ffd5b500490565b8181038181111561040657610406611ace565b600181811c90821680611b3f57607f821691505b602082108103611b5d57634e487b7160e01b5f52602260045260245ffd5b50919050565b634e487b7160e01b5f52602160045260245ffd5b5f82518060208501845e5f92019182525091905056fea2646970667358221220b1d0014921c6b69ae28513ffe29485244e8b83fba83a6150719188e382f909ac64736f6c634300081a0033",
    "sourcePath": "/Users/rock/git/foundry-project/nft-market-1/src/NFTMarket.sol",
    "compiler": {
        "name": "solc",
        "version": "0.8.26+commit.8a97fa7a"
    },
    "functionHashes": {
        "ETH_FLAG()": "45fe280d",
        "buy(bytes32)": "9c9a1061",
        "buy(bytes32,bytes)": "9b6ec0db",
        "cancel(bytes32)": "c4d252f5",
        "eip712Domain()": "84b0196e",
        "feeBP()": "017f6fae",
        "feeTo()": "017e7e58",
        "list(address,uint256,address,uint256,uint256)": "f3db41fb",
        "listing(address,uint256)": "8de820f6",
        "listingOrders(bytes32)": "e5cb0f52",
        "owner()": "8da5cb5b",
        "renounceOwnership()": "715018a6",
        "setFeeTo(address)": "f46901ed",
        "setWhithListSigner(address)": "a386dc21",
        "transferOwnership(address)": "f2fde38b",
        "whiteListSigner()": "f5615392"
    },
    "gasEstimates": {
        "creation": {
            "codeDepositCost": "1421400",
            "executionCost": "infinite",
            "totalCost": "infinite"
        },
        "external": {
            "ETH_FLAG()": "272",
            "buy(bytes32)": "infinite",
            "buy(bytes32,bytes)": "infinite",
            "cancel(bytes32)": "100790",
            "eip712Domain()": "infinite",
            "feeBP()": "240",
            "feeTo()": "2349",
            "list(address,uint256,address,uint256,uint256)": "infinite",
            "listing(address,uint256)": "4933",
            "listingOrders(bytes32)": "13279",
            "owner()": "2363",
            "renounceOwnership()": "infinite",
            "setFeeTo(address)": "32142",
            "setWhithListSigner(address)": "30010",
            "transferOwnership(address)": "infinite",
            "whiteListSigner()": "2413"
        },
        "internal": {
            "_buy(bytes32,address)": "infinite",
            "_checkWL(bytes calldata)": "infinite",
            "_transferOut(address,address,uint256)": "infinite"
        }
    }
}